:03000000020006F5
:0300680002000390
:0300030002006B8D
:20006B00750800750901750A07750B06750C05750D0490000875F0401202007522D275230F
:0C008B000490000875F0401203F580EFAF
:20009700AF82BF200050030201FCEF248550030201FCEF24E0FF240A83F582EF245F83F5F9
:2000B70083E473F8FCFCFCFCFCFCFCFCFCFCFCFCECFCFC7074787C8084888C9094FCFCFC9B
:2000D700F4FCFCFC989CA0A4A8ACB0B4B8BCFCC0FCC4C8CCD0D4D8DCE0FCFCFCE4E8FCFC7D
:2000F700FCFCF0FC989CA0A4A8ACB0B4B8BCFCC0FCC4C8CCD0D4D8DCE0FCFCFCE4E8010157
:200117000101010101010101010101010101010101010101010101010101010101010101A8
:20013700010101010101010101010101010101010101010101010101010101010101010188
:200157000101010101010101010101010101010101010101010101010175823F227582061A
:200177002275825B2275824F227582662275826D2275827D227582072275827F2275826FB1
:20019700227582772275827C227582392275825E22758279227582712275823D2275827659
:2001B700227582062275821E22758238227582542275823F22758273227582672275825047
:2001D7002275826D227582782275823E2275826E2275825B227582402275820822758248C4
:2001F700227582002275820022AD82AE83AFF0120ACDFC8C0E7510000DBD00010E8D828E1B
:20021700838FF0120ACDFD8D117513002285821685831785F01874022516FAE43517FBAC4C
:200237001875190074FC25194031E5192AFDE43BFE8C078D828E838FF0120ACDFD8D127574
:20025700320090001175F040C004C003C00212057AD002D003D004051980C98515329000F9
:200277000E75F04012099874FC2514402C74022516FDE43517FEAF18E5142DFDE43EFE8D79
:20029700828E838FF0120ACDFD8D1275320190001175F04012057A80012290000112055195
:2002B70074022516FDE43517FEAF18751A0074FC251A4031E51A2DFAE43EFB8F048A828B68
:2002D700838CF0120ACDFA8A1275320090001175F040C007C006C00512057AD005D006D03E
:2002F70007051A80C92285821D85831E85F01F7402251DFAE4351EFBAC1F75200074FC259F
:20031700204031E5202AFDE43BFE8C078D828E838FF0120ACDFD8D1275320090001175F088
:2003370040C004C003C00212057AD002D003D004052080C9AE1C7F0075320A8F338E828F4A
:2003570083120AE9AE82AF83EE245BF582EF340BF583E493F53290000E75F040120998740A
:20037700FC251B402C7402251DFDE4351EFEAF1FE51B2DFDE43EFE8D828E838FF0120ACD34
:20039700FD8D1275320190001175F04012057A8001229000011205517402251DFDE4351EA3
:2003B700FEAF1F75210074FC25214031E5212DFAE43EFB8F048A828B838CF0120ACDFA8ABD
:2003D7001275320090001175F040C007C006C00512057AD005D006D007052180C92285820A
:2003F7002485832585F026AB22AC237A00C3740F9B74A78CF063F08095F050067B0F7C2791
:20041700800FC3EB9419EC6480947C50047B197CFCE52333E433F527A9276007C3E49BFBB9
:20043700E49CFC7800EB4C605D75320A7533008B828C83C004C003C001C000120AE9AE820B
:20045700D000D0018E02881B8A1C8524828525838526F0C002C001C0001202FDD000D00123
:20047700D002D003D00475320A7533008B828C83C002C001C000120B1FAB82AC83D000D0FC
:2004970001D00208809FE96012E804F51B8A1C8524828525838526F00202FD2285822B8581
:2004B700832C85F02DAA28AB29AC2A79048A828B838CF0120ACDF8604DE924FB4048E960DE
:2004D7004589071F8882C007C004C003C002C001120097858215D001D002D003D004D00750
:2004F7008F14852B82852C83852DF0C004C003C002C001120224D001D002D003D0040ABAEA
:0705170000010B1980A7226F
:0B0B5B003F065B4F666D7D077F6F80DB
:20051E00AE82AF838E048F051EBEFF011FEC4D60217C007D007AFB7B041ABAFF011BEA4B6F
:20053E0070F70CBC00010DC3EC9401ED940040E580D222AE82AF838E048F051EBEFF011F7F
:1C055E00EC4D60175389F0438901758CFC758A67D28C308DFDC28CC28D80DC22A2
:20057A00AD82AE83AFF074022DFAE43EFB8F048A828B838CF0120ACD60030207177401B5E9
:20059A003202800302065C8D828E838FF0120ACDFC24FC5003020658EC2C9005B873800671
:2005BA00802A804E807274012DFAE43EFB8F048A828B838CF0120ACDFA8AF005F07401808E
:2005DA000225E0D5F0FBFA428002071374012DFAE43EFB8F048A828B838CF0120ACDFA8A13
:2005FA00F005F07401800225E0D5F0FBFA429002071374012DFAE43EFB8F048A828B838C66
:20061A00F0120ACDFA8AF005F07401800225E0D5F0FBFA42A002071374012DFAE43EFB8F82
:20063A00048A828B838CF0120ACDFA8AF005F07401800225E0D5F0FBFA42B00207137582F9
:20065A0001228D828E838FF0120ACDFC24FC500302070FEC2C900673738006802A804E803C
:20067A007274012DFAE43EFB8F048A828B838CF0120ACDFA8AF005F07401800225E0D5F0F9
:20069A00FBF4FA5280807274012DFAE43EFB8F048A828B838CF0120ACDFA8AF005F07401EA
:2006BA00800225E0D5F0FBF4FA5290804C74012DFAE43EFB8F048A828B838CF0120ACDFA78
:2006DA008AF005F07401800225E0D5F0FBF4FA52A080260DBD00010E8D828E838FF0120ABB
:2006FA00CDFD8DF005F07401800225E0D5F0FBF4FD52B08004758201227582002275820146
:20071A002285823585833685F03774022535FAE43536FBAC378A828B838CF0120ACDFCBC49
:20073A0001028008BC020280030208BF8535828536838537F0120ACDFC24FC50030208B7C9
:20075A00EC2C2C9007617302076D0207C0020813020865AA32AB33AC3474012535F8E4358B
:20077A0036F9AF37888289838FF0120ACDF888F005F078017F008006E828F8EF33FFD5F0FB
:20079A00F7AD807E00ED5200EE5207E84F60067E017F0080047E007F008A828B838CF0EE77
:2007BA00120A3C0208BBAD32AE33AF3474012535FAE43536FBAC378A828B838CF0120ACDEA
:2007DA00FA8AF005F07A017C008006EA2AFAEC33FCD5F0F7A9907B00E95202EB5204EA4CCC
:2007FA0060067B017C0080047B007C008D828E838FF0EB120A3C0208BBAD32AE33AF347448
:20081A00012535FAE43536FBAC378A828B838CF0120ACDFA8AF005F07A017C008006EA2AC3
:20083A00FAEC33FCD5F0F7A9A07B00E95202EB5204EA4C60067B017C0080047B007C008DEF
:20085A00828E838FF0EB120A3C8056AD32AE33AF3474012535FAE43536FBAC378A828B83A0
:20087A008CF0120ACDFA8AF005F07A017C008006EA2AFAEC33FCD5F0F7A9B07B00E952021D
:20089A00EB5204EA4C60067B017C0080047B007C008D828E838FF0EB120A3C800475820190
:2008BA00227582002275820122AD82AE83AFF074022DFAE43EFB8F048A828B838CF0120ACB
:2008DA00CD6004758201228D828E838FF0120ACDFC24FC5003020990EC2C9008F873800680
:2008FA008029804C806F74012DFAE43EFB8F048A828B838CF0120ACDFA8AF005F074018051
:20091A000225E0D5F0FBFA6280806F74012DFAE43EFB8F048A828B838CF0120ACDFA8AF0EC
:20093A0005F07401800225E0D5F0FBFA6290804A74012DFAE43EFB8F048A828B838CF01242
:20095A000ACDFA8AF005F07401800225E0D5F0FBFA62A080250DBD00010E8D828E838FF068
:20097A00120ACDFD8DF005F07401800225E0D5F0FBFD62B080047582012275820022AD8254
:20099A00AE83AFF074022DFAE43EFB8F048A828B838CF0120ACD70388D828E838FF0120A3E
:2009BA00CDFF24FC4022EF2F9009C67380068009800C800F8532808013853290800E85325F
:1409DA00A080098532B08004758201227582002275820122A8
:09005F00E4F52EF52FF530F53122
:2009EE00C0E0C007C006C005C004C0D075D000758DFC758B67AC2EAD2FAE30AF3174012CE4
:200A0E00F52EE43DF52FE43EF530E43FF531D0D0D004D005D006D007D0E03253890F438941
:0E0A2E0010758DFC758B67D2ABD2AFD28E22C5
:06003500E478FFF6D8FD9F
:200013007900E94400601B7A00900B66780175A000E493F2A308B8000205A0D9F4DAF27522
:02003300A0FF2C
:1B0A3C0020F71130F6138883A88220F509F6A8837583002280FEF280F5F022B9
:200A5700E532453360467A01E53225E0F532E533334012F533E5829532E583953340030A1C
:200A770080E6C3E53313F533E53213F532C3E5829532F5F0E58395334005F58385F082C315
:0D0A9700E53313F533E53213F532DAE122D1
:200AA4007A10E4FBFCE58225E0F582E58333F583EB33FBEC33FCEB9532F5F0EC9533400612
:090AC400FCABF0438201DADD22F3
:20003B007800E84400600A790175A000E4F309D8FC7800E84400600C7900900001E4F0A3C3
:04005B00D8FCD9FAFA
:0D000600758137120B57E58260030200037D
:1C0ACD0020F71430F6148883A88220F507E6A88375830022E280F7E49322E02238
:200AE900C2D5E58330E70DD2D5E4C39582F582E49583F583E53330E70BE4C39532F532E4C7
:160B09009533F533120A5730D50BE4C39582F582E49583F5832298
:200B1F00C2D5E58330E70DD2D5E4C39582F582E49583F583E53330E70DB2D5E4C39532F51D
:180B3F0032E49533F533120AA430D50BE4C39582F582E49583F58322FD
:040B57007582002281
:00000001FF
