:0400000002002132A7
:01000B0032C2
:0100130032BA
:03001B00020A6571
:09007A00E4F508F509F50AF50B9F
:03008C0002001E51
:03001E0002008F4E
:10008F007E007F008F0C750D01750E07750F0675BD
:10009F00100575110490000C75F040C007C00612D2
:1000AF000277120AA0D006D007E532C39508FAE509
:1000BF00339509FBE534950AFCE535950BFDC3EA4D
:1000CF00940AEB9400EC9400ED9400401BBE0F07D4
:1000DF00BF27047E007F000EBE00010F853208850A
:1000EF00330985340A85350B8E268F2790000C75C2
:1000FF00F040C007C00612046CD006D00780AAAF2C
:10010F0082BF20005003020273EF248550030202C6
:10011F0073EF24E0FF240A83F582EF245F83F583D6
:10012F00E4736F7373737373737373737373736333
:10013F007373E7EBEFF3F7FBFF03070B7373736B4C
:10014F007373730F13171B1F23272B2F33733773E0
:10015F003B3F43474B4F53577373735B5F737373DC
:10016F007367730F13171B1F23272B2F33733773CC
:10017F003B3F43474B4F53577373735B5F0202020F
:10018F000202020202020202020202020201010143
:10019F000101010102020202020202020202020234
:1001AF000202020202020202020202020202020220
:1001BF000202020202020202020202020202020210
:1001CF000202020202020202020202020202020200
:1001DF00020202020202020275823F227582062289
:1001EF0075825B2275824F227582662275826D221F
:1001FF0075827D227582072275827F2275826F221A
:10020F007582772275827C227582392275825E22F1
:10021F00758279227582712275823D2275827622CE
:10022F007582062275821E227582382275825422AB
:10023F0075823F22758273227582672275825022E2
:10024F0075826D227582782275823E2275826E22AA
:10025F0075825B2275824022758208227582482240
:10026F007582002275820022AD82AE83AFF0120B31
:10027F0044FC8C127514000DBD00010E8D828E830F
:10028F008FF0120B44FD8D157517002285821A858C
:10029F00831B85F01C7402251AFAE4351BFBAC1C7A
:1002AF00751D0074FC251D4031E51D2AFDE43BFE44
:1002BF008C078D828E838FF0120B44FD8D16753651
:1002CF000090001575F040C004C003C0021205F184
:1002DF00D002D003D004051D80C9851936900012B5
:1002EF0075F040120A0F74FC2518402C7402251A61
:1002FF00FDE4351BFEAF1CE5182DFDE43EFE8D829F
:10030F008E838FF0120B44FD8D16753601900015FC
:10031F0075F0401205F18001229000011205C8749A
:10032F0002251AFDE4351BFEAF1C751E0074FC255B
:10033F001E4031E51E2DFAE43EFB8F048A828B832B
:10034F008CF0120B44FA8A1675360090001575F072
:10035F0040C007C006C0051205F1D005D006D00772
:10036F00051E80C92285822185832285F023740290
:10037F002521FAE43522FBAC2375240074FC2524D7
:10038F004031E5242AFDE43BFE8C078D828E838F5E
:10039F00F0120B44FD8D1675360090001575F04068
:1003AF00C004C003C0021205F1D002D003D004056F
:1003BF002480C9AE207F0075360A8F378E828F83D7
:1003CF00120B60AE82AF83EE24D2F582EF340BF5C1
:1003DF0083E493F53690001275F040120A0F74FC07
:1003EF00251F402C74022521FDE43522FEAF23E5A5
:1003FF001F2DFDE43EFE8D828E838FF0120B44FD88
:10040F008D1675360190001575F0401205F18001BB
:10041F00229000011205C874022521FDE43522FE49
:10042F00AF2375250074FC25254031E5252DFAE411
:10043F003EFB8F048A828B838CF0120B44FA8A1650
:10044F0075360090001575F040C007C006C0051244
:10045F0005F1D005D006D007052580C92285822851
:10046F0085832985F02AAB26AC277A00C3740F9BAE
:10047F0074A78CF063F08095F050067B0F7C27807B
:10048F000FC3EB9419EC6480947C50047B197CFCB3
:10049F00E52733E433F52BA92B6007C3E49BFBE47B
:1004AF009CFC7800EB4C605D75360A7537008B82CB
:1004BF008C83C004C003C001C000120B60AE82D099
:1004CF0000D0018E02881F8A208528828529838586
:1004DF002AF0C002C001C000120374D000D001D0B6
:1004EF0002D003D00475360A7537008B828C83C017
:1004FF0002C001C000120B96AB82AC83D000D001BA
:10050F00D00208809FE96012E804F51F8A20852831
:10051F0082852983852AF00203742285822F8583A1
:10052F003085F031AA2CAB2DAC2E79048A828B83C7
:10053F008CF0120B44F8604DE924FB4048E960450C
:10054F0089071F8882C007C004C003C002C0011200
:10055F00010E858219D001D002D003D004D0078FAD
:10056F0018852F828530838531F0C004C003C00207
:10057F00C00112029BD001D002D003D0040ABA00EE
:06058F00010B1980A722F8
:0B0BD2003F065B4F666D7D077F6F8064
:10059500AE82AF838E048F051EBEFF011FEC4D603A
:1005A500217C007D007AFB7B041ABAFF011BEA4B14
:1005B50070F70CBC00010DC3EC9401ED940040E50F
:1005C50080D222AE82AF838E048F051EBEFF011F2F
:1005D500EC4D60175389F0438901758CFC758A676A
:1005E500D28C308DFDC28CC28D80DC22AD82AE8373
:1005F500AFF074022DFAE43EFB8F048A828B838C64
:10060500F0120B44600302078E7401B536028003B5
:100615000206D38D828E838FF0120B44FC24FC508E
:10062500030206CFEC2C90062F738006802A804E9D
:10063500807274012DFAE43EFB8F048A828B838CD1
:10064500F0120B44FA8AF005F07401800225E0D51A
:10065500F0FBFA428002078A74012DFAE43EFB8F13
:10066500048A828B838CF0120B44FA8AF005F074AD
:1006750001800225E0D5F0FBFA429002078A740159
:100685002DFAE43EFB8F048A828B838CF0120B4497
:10069500FA8AF005F07401800225E0D5F0FBFA42F4
:1006A500A002078A74012DFAE43EFB8F048A828B2F
:1006B500838CF0120B44FA8AF005F0740180022550
:1006C500E0D5F0FBFA42B002078A758201228D82DD
:1006D5008E838FF0120B44FC24FC5003020786EC3A
:1006E5002C9006EA738006802A804E807274012D54
:1006F500FAE43EFB8F048A828B838CF0120B44FA5A
:100705008AF005F07401800225E0D5F0FBF4FA5279
:1007150080807274012DFAE43EFB8F048A828B83FC
:100725008CF0120B44FA8AF005F07401800225E082
:10073500D5F0FBF4FA5290804C74012DFAE43EFB9F
:100745008F048A828B838CF0120B44FA8AF005F0B1
:100755007401800225E0D5F0FBF4FA52A080260D45
:10076500BD00010E8D828E838FF0120B44FD8DF03E
:1007750005F07401800225E0D5F0FBF4FD52B08050
:1007850004758201227582002275820122858239D3
:1007950085833A85F03B74022539FAE4353AFBAC9A
:1007A5003B8A828B838CF0120B44FCBC01028008CF
:1007B500BC02028003020936853982853A83853B6E
:1007C500F0120B44FC24FC500302092EEC2C2C9057
:1007D50007D8730207E402083702088A0208DCAA70
:1007E50036AB37AC3874012539F8E4353AF9AF3B07
:1007F500888289838FF0120B44F888F005F0780120
:100805007F008006E828F8EF33FFD5F0F7AD807E4E
:1008150000ED5200EE5207E84F60067E017F008032
:10082500047E007F008A828B838CF0EE120AB3026D
:100835000932AD36AE37AF3874012539FAE4353AA9
:10084500FBAC3B8A828B838CF0120B44FA8AF00551
:10085500F07A017C008006EA2AFAEC33FCD5F0F741
:10086500A9907B00E95202EB5204EA4C60067B0139
:100875007C0080047B007C008D828E838FF0EB12E0
:100885000AB3020932AD36AE37AF3874012539FAED
:10089500E4353AFBAC3B8A828B838CF0120B44FA2D
:1008A5008AF005F07A017C008006EA2AFAEC33FC2E
:1008B500D5F0F7A9A07B00E95202EB5204EA4C609F
:1008C500067B017C0080047B007C008D828E838FFB
:1008D500F0EB120AB38056AD36AE37AF387401254A
:1008E50039FAE4353AFBAC3B8A828B838CF0120BE8
:1008F50044FA8AF005F07A017C008006EA2AFAECCF
:1009050033FCD5F0F7A9B07B00E95202EB5204EABB
:100915004C60067B017C0080047B007C008D828E10
:10092500838FF0EB120AB380047582012275820071
:100935002275820122AD82AE83AFF074022DFAE4F6
:100945003EFB8F048A828B838CF0120B4460047506
:100955008201228D828E838FF0120B44FC24FC5081
:1009650003020A07EC2C90096F7380068029804CDE
:10097500806F74012DFAE43EFB8F048A828B838C91
:10098500F0120B44FA8AF005F07401800225E0D5D7
:10099500F0FBFA6280806F74012DFAE43EFB8F0450
:1009A5008A828B838CF0120B44FA8AF005F074016D
:1009B500800225E0D5F0FBFA6290804A74012DFA99
:1009C500E43EFB8F048A828B838CF0120B44FA8AF7
:1009D500F005F07401800225E0D5F0FBFA62A080F5
:1009E500250DBD00010E8D828E838FF0120B44FD07
:1009F5008DF005F07401800225E0D5F0FBFD62B0B5
:100A050080047582012275820022AD82AE83AFF02B
:100A150074022DFAE43EFB8F048A828B838CF012DC
:100A25000B4470388D828E838FF0120B44FF24FCAB
:100A35004022EF2F900A3D7380068009800C800FBD
:100A45008536808013853690800E8536A080098591
:100A550036B08004758201227582002275820122DA
:09008300E4F532F533F534F535EE
:100A6500C0E0C007C006C005C004C0D075D0007581
:100A75008DFC758B67AC32AD33AE34AF3574012C5C
:100A8500F532E43DF533E43EF534E43FF535D0D0B9
:100A9500D004D005D006D007D0E03253890F438962
:0E0AA50010758DFC758B67D2ABD2AFD28E224E
:06005000E478FFF6D8FD84
:10002E007900E94400601B7A00900BDD780175A021
:10003E0000E493F2A308B8000205A0D9F4DAF27531
:02004E00A0FF11
:100AB30020F71130F6138883A88220F509F6A8835E
:100AC3007583002280FEF280F5F022E5364537601B
:100AD300467A01E53625E0F536E537334012F5373A
:100AE300E5829536E583953740030A80E6C3E5370B
:100AF30013F537E53613F536C3E5829536F5F0E59C
:100B03008395374005F58385F082C3E53713F537C1
:100B1300E53613F536DAE1227A10E4FBFCE58225AB
:100B2300E0F582E58333F583EB33FBEC33FCEB95A4
:100B330036F5F0EC95374006FCABF0438201DADD85
:010B4300228F
:100056007800E84400600A790175A000E4F309D845
:10006600FC7800E84400600C7900900001E4F0A3FD
:04007600D8FCD9FADF
:0D00210075813B120BCEE582600302001ECC
:100B440020F71430F6148883A88220F507E6A883DA
:100B540075830022E280F7E49322E022C2D5E58384
:100B640030E70DD2D5E4C39582F582E49583F5830D
:100B7400E53730E70BE4C39536F536E49537F537BA
:100B8400120ACE30D50BE4C39582F582E49583F541
:100B94008322C2D5E58330E70DD2D5E4C39582F52F
:100BA40082E49583F583E53730E70DB2D5E4C39548
:100BB40036F536E49537F537120B1B30D50BE4C305
:0E0BC4009582F582E49583F5832275820022E6
:00000001FF
