:03000000020006F5
:03005F0002000399
:0300030002006296
:10006200750800750900750A007F00BF0800502757
:100072008F068EF005F07401800225E0D5F0FBF5C5
:100082000B90000875F040C00712052190000A127B
:1000920000D0D0070F80D47F00BF080050CB8FF074
:1000A20005F07D80E4FE3392D28008A2D2EE13FEE8
:1000B200ED13FDD5F0F58D0B90000875F040C007EB
:1000C20012052190000A1200D0D0070F80CBAE8219
:1000D200AF838E048F051EBEFF011FEC4D60217C95
:1000E200007D007AFB7B041ABAFF011BEA4B70F712
:1000F2000CBC00010DC3EC9401ED940040E580D2EC
:1001020022AD82AE83AFF074022DFAE43EFB8F047F
:100112008A828B838CF012057860030202A074013C
:10012200B50B0280030201E58D828E838FF01205EA
:1001320078FC24FC50030201E1EC2C900141738015
:1001420006802A804E807274012DFAE43EFB8F04F1
:100152008A828B838CF0120578FA8AF005F074019A
:10016200800225E0D5F0FBFA428002029C74012D48
:10017200FAE43EFB8F048A828B838CF0120578FAB4
:100182008AF005F07401800225E0D5F0FBFA429076
:1001920002029C74012DFAE43EFB8F048A828B8357
:1001A2008CF0120578FA8AF005F07401800225E0DD
:1001B200D5F0FBFA42A002029C74012DFAE43EFB48
:1001C2008F048A828B838CF0120578FA8AF005F00C
:1001D2007401800225E0D5F0FBFA42B002029C7560
:1001E2008201228D828E838FF0120578FC24FC50CE
:1001F20003020298EC2C9001FC738006802A804E48
:10020200807274012DFAE43EFB8F048A828B838C08
:10021200F0120578FA8AF005F07401800225E0D523
:10022200F0FBF4FA5280807274012DFAE43EFB8FE7
:10023200048A828B838CF0120578FA8AF005F074B6
:1002420001800225E0D5F0FBF4FA5290804C740153
:100252002DFAE43EFB8F048A828B838CF0120578A0
:10026200FA8AF005F07401800225E0D5F0FBF4FA79
:1002720052A080260DBD00010E8D828E838FF0125A
:100282000578FD8DF005F07401800225E0D5F0FBC4
:10029200F4FD52B0800475820122758200227582BB
:1002A200012285820E85830F85F0107402250EFAD5
:1002B200E4350FFBAC108A828B838CF0120578FC3C
:1002C200BC01028008BC02028003020448850E823F
:1002D200850F838510F0120578FC24FC500302047C
:1002E20040EC2C2C9002EA730202F602034902034C
:1002F2009C0203EEAA0BAB0CAC0D7401250EF8E4C4
:10030200350FF9AF10888289838FF0120578F8884B
:10031200F005F078017F008006E828F8EF33FFD57A
:10032200F0F7AD807E00ED5200EE5207E84F600616
:100332007E017F0080047E007F008A828B838CF0A6
:10034200EE12055D020444AD0BAE0CAF0D74012537
:100352000EFAE4350FFBAC108A828B838CF0120507
:1003620078FA8AF005F07A017C008006EA2AFAEC33
:1003720033FCD5F0F7A9907B00E95202EB5204EA74
:100382004C60067B017C0080047B007C008D828EA9
:10039200838FF0EB12055D020444AD0BAE0CAF0D82
:1003A2007401250EFAE4350FFBAC108A828B838C24
:1003B200F0120578FA8AF005F07A017C008006EAEC
:1003C2002AFAEC33FCD5F0F7A9A07B00E95202EB44
:1003D2005204EA4C60067B017C0080047B007C00B6
:1003E2008D828E838FF0EB12055D8056AD0BAE0CC5
:1003F200AF0D7401250EFAE4350FFBAC108A828B27
:10040200838CF0120578FA8AF005F07A017C00807C
:1004120006EA2AFAEC33FCD5F0F7A9B07B00E952E0
:1004220002EB5204EA4C60067B017C0080047B00F4
:100432007C008D828E838FF0EB12055D80047582C5
:1004420001227582002275820122AD82AE83AFF055
:1004520074022DFAE43EFB8F048A828B838CF012A5
:1004620005786004758201228D828E838FF01205D9
:1004720078FC24FC5003020519EC2C900481738053
:10048200068029804C806F74012DFAE43EFB8F04B4
:100492008A828B838CF0120578FA8AF005F0740157
:1004A200800225E0D5F0FBFA6280806F74012DFA9C
:1004B200E43EFB8F048A828B838CF0120578FA8AE1
:1004C200F005F07401800225E0D5F0FBFA6290801D
:1004D2004A74012DFAE43EFB8F048A828B838CF0EE
:1004E200120578FA8AF005F07401800225E0D5F051
:1004F200FBFA62A080250DBD00010E8D828E838FD6
:10050200F0120578FD8DF005F07401800225E0D52A
:10051200F0FBFD62B080047582012275820022AD7B
:1005220082120578FF7030EFFE24FC4022EE2E90FE
:1005320005357380068009800C800F850B8080133F
:10054200850B90800E850BA08009850BB080047509
:0B0552008201227582002275820122C6
:06003500E478FFF6D8FD9F
:100013007900E94400601B7A00900598780175A087
:1000230000E493F2A308B8000205A0D9F4DAF2754C
:02003300A0FF2C
:10055D0020F71130F6138883A88220F509F6A883B9
:0B056D007583002280FEF280F5F02272
:10003B007800E84400600A790175A000E4F309D860
:10004B00FC7800E84400600C7900900001E4F0A318
:04005B00D8FCD9FAFA
:0D000600758110120594E58260030200036D
:1005780020F71430F6148883A88220F507E6A883AC
:1005880075830022E280F7E49322E022758200223C
:00000001FF
