:03000000020006F5
:0300680002000390
:0300030002006B8D
:20006B00750800750900750A007F00BF080050278F068EF005F07401800225E0D5F0FBF585
:20008B001E90000875F040C00712070190000A120287D0070F80D47F00BF080050CB8FF0CA
:2000AB0005F07D80E4FE3392D28008A2D2EE13FEED13FDD5F0F58D1E90000875F040C00769
:0E00CB0012070190000A120287D0070F80CBA7
:2000D900AD82AE83AFF0120836FC8C0B750D000DBD00010E8D828E838FF0120836FD8D0E43
:2000F9007510002285821385831485F01574022513FAE43514FBAC1575160074FC25164079
:2001190031E5162AFDE43BFE8C078D828E838FF0120836FD8D0F751E0090000E75F040C0A5
:2001390004C003C0021202E3D002D003D004051680C9AE127F00751E0A8F1F8E828F83128B
:200159000852AE82AF83EE24C4F582EF3408F583E493F51E90000B75F04012070174FC2561
:2001790011402C74022513FDE43514FEAF15E5112DFDE43EFE8D828E838FF0120836FD8D96
:200199000F751E0190000E75F0401202E38001229000011202BA74022513FDE43514FEAFE2
:2001B9001575170074FC25174031E5172DFAE43EFB8F048A828B838CF0120836FA8A0F75A7
:2001D9001E0090000E75F040C007C006C0051202E3D005D006D007051780C922AD82AE83F3
:2001F900AFF0AB18AC19C3740F9B74A78CF063F08095F050067B0F7C278008EC30E7047B62
:20021900E77C037A00EB4C6064751E0A751F008B828C83C007C006C005C004C003C00212F0
:200239000852A882D002D003D004D005D006D00788128A118D828E838FF0C007C006C00500
:20025900C004C003C0021200FDD002D003D004751E0A751F008B828C83C002120888AB82D6
:0E027900AC83D002D005D006D0070A809822B0
:0A08C4003F065B4F666D7D077F6FF6
:20028700AE82AF838E048F051EBEFF011FEC4D60217C007D007AFB7B041ABAFF011BEA4B09
:2002A70070F70CBC00010DC3EC9401ED940040E580D222AE82AF838E048F051EBEFF011F19
:1C02C700EC4D60175389F0438901758CFC758A67D28C308DFDC28CC28D80DC223C
:2002E300AD82AE83AFF074022DFAE43EFB8F048A828B838CF012083660030204807401B5B6
:200303001E0280030203C58D828E838FF0120836FC24FC50030203C1EC2C90032173800684
:20032300802A804E807274012DFAE43EFB8F048A828B838CF0120836FA8AF005F0740180C0
:200343000225E0D5F0FBFA428002047C74012DFAE43EFB8F048A828B838CF0120836FA8ADF
:20036300F005F07401800225E0D5F0FBFA429002047C74012DFAE43EFB8F048A828B838C99
:20038300F0120836FA8AF005F07401800225E0D5F0FBFA42A002047C74012DFAE43EFB8F4F
:2003A300048A828B838CF0120836FA8AF005F07401800225E0D5F0FBFA42B002047C7582C6
:2003C30001228D828E838FF0120836FC24FC5003020478EC2C9003DC738006802A804E80A3
:2003E3007274012DFAE43EFB8F048A828B838CF0120836FA8AF005F07401800225E0D5F02C
:20040300FBF4FA5280807274012DFAE43EFB8F048A828B838CF0120836FA8AF005F074011C
:20042300800225E0D5F0FBF4FA5290804C74012DFAE43EFB8F048A828B838CF0120836FAAA
:200443008AF005F07401800225E0D5F0FBF4FA52A080260DBD00010E8D828E838FF0120856
:2004630036FD8DF005F07401800225E0D5F0FBF4FD52B08004758201227582002275820176
:200483002285822185832285F02374022521FAE43522FBAC238A828B838CF0120836FCBCF4
:2004A30001028008BC020280030206288521828522838523F0120836FC24FC50030206206A
:2004C300EC2C2C9004CA730204D602052902057C0205CEAA1EAB1FAC2074012521F8E43576
:2004E30022F9AF23888289838FF0120836F888F005F078017F008006E828F8EF33FFD5F056
:20050300F7AD807E00ED5200EE5207E84F60067E017F0080047E007F008A828B838CF0EE10
:200523001207A5020624AD1EAE1FAF2074012521FAE43522FBAC238A828B838CF0120836C7
:20054300FA8AF005F07A017C008006EA2AFAEC33FCD5F0F7A9907B00E95202EB5204EA4C65
:2005630060067B017C0080047B007C008D828E838FF0EB1207A5020624AD1EAE1FAF207450
:20058300012521FAE43522FBAC238A828B838CF0120836FA8AF005F07A017C008006EA2A32
:2005A300FAEC33FCD5F0F7A9A07B00E95202EB5204EA4C60067B017C0080047B007C008D89
:2005C300828E838FF0EB1207A58056AD1EAE1FAF2074012521FAE43522FBAC238A828B834C
:2005E3008CF0120836FA8AF005F07A017C008006EA2AFAEC33FCD5F0F7A9B07B00E9520250
:20060300EB5204EA4C60067B017C0080047B007C008D828E838FF0EB1207A58004758201C3
:20062300227582002275820122AD82AE83AFF074022DFAE43EFB8F048A828B838CF0120866
:20064300366004758201228D828E838FF0120836FC24FC50030206F9EC2C9006617380067C
:200663008029804C806F74012DFAE43EFB8F048A828B838CF0120836FA8AF005F074018083
:200683000225E0D5F0FBFA6280806F74012DFAE43EFB8F048A828B838CF0120836FA8AF01F
:2006A30005F07401800225E0D5F0FBFA6290804A74012DFAE43EFB8F048A828B838CF012DC
:2006C3000836FA8AF005F07401800225E0D5F0FBFA62A080250DBD00010E8D828E838FF09B
:2006E300120836FD8DF005F07401800225E0D5F0FBFD62B080047582012275820022AD8287
:20070300AE83AFF074022DFAE43EFB8F048A828B838CF012083670388D828E838FF0120872
:2007230036FF24FC4022EF2F90072F7380068009800C800F851E808013851E90800E851E64
:14074300A08009851EB0800475820122758200227582012255
:09005F00E4F51AF51BF51CF51D72
:20075700C0E0C007C006C005C004C0D075D000758DFC758B67AC1AAD1BAE1CAF1D74012CCD
:20077700F51AE43DF51BE43EF51CE43FF51DD0D0D004D005D006D007D0E03253890F43892B
:0E07970010758DFC758B67D2ABD2AFD28E225F
:06003500E478FFF6D8FD9F
:200013007900E94400601B7A009008CE780175A000E493F2A308B8000205A0D9F4DAF275BD
:02003300A0FF2C
:1B07A50020F71130F6138883A88220F509F6A8837583002280FEF280F5F02253
:2007C000E51E451F60467A01E51E25E0F51EE51F334012F51FE582951EE583951F40030A56
:2007E00080E6C3E51F13F51FE51E13F51EC3E582951EF5F0E583951F4005F58385F082C327
:0D080000E51F13F51FE51E13F51EDAE122BA
:20080D007A10E4FBFCE58225E0F582E58333F583EB33FBEC33FCEB951EF5F0EC951F4006D3
:09082D00FCABF0438201DADD228C
:20003B007800E84400600A790175A000E4F309D8FC7800E84400600C7900900001E4F0A3C3
:04005B00D8FCD9FAFA
:0D0006007581231208C0E58260030200032B
:1C08360020F71430F6148883A88220F507E6A88375830022E280F7E49322E022D1
:20085200C2D5E58330E70DD2D5E4C39582F582E49583F583E51F30E70BE4C3951EF51EE49C
:16087200951FF51F1207C030D50BE4C39582F582E49583F58322F4
:20088800C2D5E58330E70DD2D5E4C39582F582E49583F583E51F30E70DB2D5E4C3951EF5DF
:1808A8001EE4951FF51F12080D30D50BE4C39582F582E49583F583226C
:0408C000758200221B
:00000001FF
