:03000000020006F5
:0300680002000390
:0300030002006B8D
:10006B00750838750930750A35750B31750C2075A7
:10007B000D48750E65750F6C75106C75116F7512DB
:10008B00207513217514007515007516017517066B
:10009B0075180575190790001575F040120BF4755E
:1000AB00450875460075474090001575F040120BDA
:1000BB00B180FEAF82BF20005003020223EF2485E4
:1000CB005003020223EF24E0FF240A83F582EF247E
:1000DB005F83F583E4731F2323232323232323230A
:1000EB00232323132323979B9FA3A7ABAFB3B7BBA9
:1000FB002323231B232323BFC3C7CBCFD3D7DBDFC1
:10010B00E323E723EBEFF3F7FBFF03072323230B98
:10011B000F232323231723BFC3C7CBCFD3D7DBDFB8
:10012B00E323E723EBEFF3F7FBFF03072323230B78
:10013B000F02020202020202020202020202020287
:10014B00020101010101010101010102020202028E
:10015B000202010101010101010101010201020180
:10016B000101010101020202020202020202020269
:10017B000202010101010101010101010201020160
:10018B0001010101010202020202020275823F22F9
:10019B007582062275825B2275824F2275826622DA
:1001AB0075826D2275827D227582072275827F2270
:1001BB0075826F227582772275827C227582392235
:1001CB0075825E22758279227582712275823D223B
:1001DB00758276227582062275821E2275823822DE
:1001EB007582542275823F22758273227582672233
:1001FB007582502275826D227582782275823E221D
:10020B0075826E2275825B2275824022758208226E
:10021B00758248227582002275820022AD82AE83E0
:10022B00AFF0120D36FC8C1A751C000DBD00010EC3
:10023B008D828E838FF0120D36FD8D1D751F002262
:10024B0085822285832385F02474022522FAE435E6
:10025B0023FBAC2475250074FC25254031E5252AAC
:10026B00FDE43BFE8C078D828E838FF0120D36FDE5
:10027B008D1E754C0090001D75F040C004C003C06E
:10028B00021205A1D002D003D004052580C9852117
:10029B004C90001A75F0401209BF74FC2520402CBD
:1002AB0074022522FDE43523FEAF24E5202DFDE469
:1002BB003EFE8D828E838FF0120D36FD8D1E754C9A
:1002CB000190001D75F0401205A1800122900001E4
:1002DB0012057874022522FDE43523FEAF24752622
:1002EB000074FC25264031E5262DFAE43EFB8F04F5
:1002FB008A828B838CF0120D36FA8A1E754C009015
:10030B00001D75F040C007C006C0051205A1D00541
:10031B00D006D007052680C92285822985832A85A8
:10032B00F02B74022529FAE4352AFBAC2B752C0033
:10033B0074FC252C4031E52C2AFDE43BFE8C078D0B
:10034B00828E838FF0120D36FD8D1E754C00900042
:10035B001D75F040C004C003C0021205A1D002D02D
:10036B0003D004052C80C9AE287F00754C0A8F4D35
:10037B008E828F83120D52AE82AF83EE24C4F58230
:10038B00EF340DF583E493F54C90001A75F04012A1
:10039B0009BF74FC2527402C74022529FDE4352A5E
:1003AB00FEAF2BE5272DFDE43EFE8D828E838FF075
:1003BB00120D36FD8D1E754C0190001D75F040120F
:1003CB0005A180012290000112057874022529FDF8
:1003DB00E4352AFEAF2B752D0074FC252D4031E53D
:1003EB002D2DFAE43EFB8F048A828B838CF0120D49
:1003FB0036FA8A1E754C0090001D75F040C007C080
:10040B0006C0051205A1D005D006D007052D80C961
:10041B002285823085833185F032AB2EAC2F7A006A
:10042B00C3740F9B74A78CF063F08095F050067B20
:10043B000F7C27800FC3EB9419EC6480947C5004E1
:10044B007B197CFCE52F33E433F533A9336007C309
:10045B00E49BFBE49CFC7800EB4C605D754C0A75EF
:10046B004D008B828C83C004C003C001C000120DF1
:10047B0052AE82D000D0018E0288278A2885308226
:10048B008531838532F0C002C001C000120324D035
:10049B0000D001D002D003D004754C0A754D008BEF
:1004AB00828C83C002C001C000120D88AB82AC836A
:1004BB00D000D001D00208809FE96012E804F52734
:1004CB008A288530828531838532F0020324228588
:1004DB00823785833885F039AA34AB35AC3679044D
:1004EB008A828B838CF0120D36F8604DE924FB4029
:1004FB0048E9604589071F8882C007C004C003C054
:10050B0002C0011200BE858221D001D002D003D0DF
:10051B0004D0078F208537828538838539F0C00456
:10052B00C003C002C00112024BD001D002D003D0D5
:0A053B00040ABA00010B1980A72280
:0B0DC4003F065B4F666D7D077F6F8070
:10054500AE82AF838E048F051EBEFF011FEC4D608A
:10055500217C007D007AFB7B041ABAFF011BEA4B64
:1005650070F70CBC00010DC3EC9401ED940040E55F
:1005750080D222AE82AF838E048F051EBEFF011F7F
:10058500EC4D60175389F0438901758CFC758A67BA
:10059500D28C308DFDC28CC28D80DC22AD82AE83C3
:1005A500AFF074022DFAE43EFB8F048A828B838CB4
:1005B500F0120D36600302073E7401B54C0280034C
:1005C5000206838D828E838FF0120D36FC24FC503B
:1005D5000302067FEC2C9005DF738006802A804E8F
:1005E500807274012DFAE43EFB8F048A828B838C22
:1005F500F0120D36FA8AF005F07401800225E0D577
:10060500F0FBFA428002073A74012DFAE43EFB8FB3
:10061500048A828B838CF0120D36FA8AF005F07409
:1006250001800225E0D5F0FBFA429002073A7401F9
:100635002DFAE43EFB8F048A828B838CF0120D36F3
:10064500FA8AF005F07401800225E0D5F0FBFA4244
:10065500A002073A74012DFAE43EFB8F048A828BCF
:10066500838CF0120D36FA8AF005F07401800225AC
:10067500E0D5F0FBFA42B002073A758201228D827D
:100685008E838FF0120D36FC24FC5003020736ECE6
:100695002C90069A738006802A804E807274012DF4
:1006A500FAE43EFB8F048A828B838CF0120D36FAB6
:1006B5008AF005F07401800225E0D5F0FBF4FA52CA
:1006C50080807274012DFAE43EFB8F048A828B834D
:1006D5008CF0120D36FA8AF005F07401800225E0DF
:1006E500D5F0FBF4FA5290804C74012DFAE43EFBF0
:1006F5008F048A828B838CF0120D36FA8AF005F00E
:100705007401800225E0D5F0FBF4FA52A080260D95
:10071500BD00010E8D828E838FF0120D36FD8DF09A
:1007250005F07401800225E0D5F0FBF4FD52B080A0
:100735000475820122758200227582012285824F0D
:1007450085835085F0517402254FFAE43550FBAC92
:10075500518A828B838CF0120D36FCBC0102800815
:10076500BC020280030208E6854F828550838551CD
:10077500F0120D36FC24FC50030208DEEC2C2C9004
:100785000788730207940207E702083A02088CAA51
:100795004CAB4DAC4E7401254FF8E43550F9AF51D3
:1007A500888289838FF0120D36F888F005F078017C
:1007B5007F008006E828F8EF33FFD5F0F7AD807E9F
:1007C50000ED5200EE5207E84F60067E017F008083
:1007D500047E007F008A828B838CF0EE120CA502CA
:1007E50008E2AD4CAE4DAF4E7401254FFAE43550DD
:1007F500FBAC518A828B838CF0120D36FA8AF00598
:10080500F07A017C008006EA2AFAEC33FCD5F0F791
:10081500A9907B00E95202EB5204EA4C60067B0189
:100825007C0080047B007C008D828E838FF0EB1230
:100835000CA50208E2AD4CAE4DAF4E7401254FFA42
:10084500E43550FBAC518A828B838CF0120D36FA5D
:100855008AF005F07A017C008006EA2AFAEC33FC7E
:10086500D5F0F7A9A07B00E95202EB5204EA4C60EF
:10087500067B017C0080047B007C008D828E838F4B
:10088500F0EB120CA58056AD4CAE4DAF4E74012564
:100895004FFAE43550FBAC518A828B838CF0120DF4
:1008A50036FA8AF005F07A017C008006EA2AFAEC2D
:1008B50033FCD5F0F7A9B07B00E95202EB5204EA0C
:1008C5004C60067B017C0080047B007C008D828E61
:1008D500838FF0EB120CA5800475820122758200CE
:1008E5002275820122AD82AE83AFF074022DFAE447
:1008F5003EFB8F048A828B838CF0120D3660047563
:100905008201228D828E838FF0120D36FC24FC50DD
:10091500030209B7EC2C90091F7380068029804CCF
:10092500806F74012DFAE43EFB8F048A828B838CE1
:10093500F0120D36FA8AF005F07401800225E0D533
:10094500F0FBFA6280806F74012DFAE43EFB8F04A0
:100955008A828B838CF0120D36FA8AF005F07401C9
:10096500800225E0D5F0FBFA6290804A74012DFAE9
:10097500E43EFB8F048A828B838CF0120D36FA8A53
:10098500F005F07401800225E0D5F0FBFA62A08045
:10099500250DBD00010E8D828E838FF0120D36FD63
:1009A5008DF005F07401800225E0D5F0FBFD62B005
:1009B50080047582012275820022AD82AE83AFF07C
:1009C50074022DFAE43EFB8F048A828B838CF0122D
:1009D5000D3670388D828E838FF0120D36FF24FC14
:1009E5004022EF2F9009ED7380068009800C800F5F
:1009F500854C808013854C90800E854CA0800985A0
:100A05004CB0800475820122758200227582012214
:100A150085823E85833F85F0407401253EFAE435A5
:100A25003FFBAC408A828B838CF0120D36FF8F3AE8
:100A35007403253EFDE4353FFEAF408D828E838FE6
:100A4500F0120D36FD8D3B754C0090003A75F04067
:100A5500C004C003C0021205A17402253EFDE435A1
:100A65003FFEAF408D828E838FF0120D36FD8D3B9C
:100A7500754C0090003A75F0401205A1853E8285BF
:100A85003F838540F0120D36FF8F3A853D4C90002F
:100A95003A75F0401209BFD002D003D00474042582
:100AA5003EFDE4353FFEAF408D828E838FF0120D03
:100AB50036FD8D3B8A828B838CF0120D36FA8A3A8D
:100AC500754C0190003A75F0401205A19000011295
:100AD5000545754C0090003A75F0400205A18582E8
:100AE5004285834385F04474012542FAE43543FB8E
:100AF500AC448A828B838CF0120D36FF8F3A7403D7
:100B05002542FDE43543FEAF448D828E838FF0127E
:100B15000D36FD8D3B754C0190003A75F040C004D3
:100B2500C003C0021205A174022542FDE43543FE4F
:100B3500AF448D828E838FF0120D36FD8D3B754C43
:100B45000090003A75F0401205A1854282854383E5
:100B55008544F0120D36FF8F3A85414C90003A7569
:100B6500F0401209BFD002D003D00474042542FD21
:100B7500E43543FEAF448D828E838FF0120D36FD32
:100B85008D3B8A828B838CF0120D36FA8A3A754C2E
:100B95000190003A75F0401205A19000011205453B
:100BA500754C0090003A75F0400205A1AD82AE8308
:100BB500AFF0AA45AB46AC478A828B838CF0120D09
:100BC50036F9602A89418D828E838FF0C007C00671
:100BD500C005C004C003C002120AE3D002D003D08E
:100BE50004D005D006D0070ABA00CD0B80CA22ADC5
:100BF50082AE83AFF0120D36FC8C3A753C00753D24
:100C0500388D828E838FF0C007C006C005120A1585
:100C1500D005D006D007753D0C8D828E838FF0C030
:100C250007C006C005120A15D005D006D007753DC8
:100C3500018D828E838FF0C007C006C005120A158C
:100C4500D005D006D007753D068D828E838FF002C4
:020C55000A157E
:09005F00E4F548F549F54AF54BBA
:100C5700C0E0C007C006C005C004C0D075D000758D
:100C67008DFC758B67AC48AD49AE4AAF4B74012C10
:100C7700F548E43DF549E43EF54AE43FF54BD0D06D
:100C8700D004D005D006D007D0E03253890F43896E
:0E0C970010758DFC758B67D2ABD2AFD28E225A
:06003500E478FFF6D8FD9F
:100013007900E94400601B7A00900DCF780175A048
:1000230000E493F2A308B8000205A0D9F4DAF2754C
:02003300A0FF2C
:100CA50020F71130F6138883A88220F509F6A8836A
:100CB5007583002280FEF280F5F022E54C454D60FB
:100CC500467A01E54C25E0F54CE54D334012F54DEE
:100CD500E582954CE583954D40030A80E6C3E54DD5
:100CE50013F54DE54C13F54CC3E582954CF5F0E550
:100CF50083954D4005F58385F082C3E54D13F54D8C
:100D0500E54C13F54CDAE1227A10E4FBFCE582258B
:100D1500E0F582E58333F583EB33FBEC33FCEB95B0
:100D25004CF5F0EC954D4006FCABF0438201DADD65
:010D3500229B
:10003B007800E84400600A790175A000E4F309D860
:10004B00FC7800E84400600C7900900001E4F0A318
:04005B00D8FCD9FAFA
:0D000600758151120DC0E5826003020003F8
:100D360020F71430F6148883A88220F507E6A883E6
:100D460075830022E280F7E49322E022C2D5E58390
:100D560030E70DD2D5E4C39582F582E49583F58319
:100D6600E54D30E70BE4C3954CF54CE4954DF54D58
:100D7600120CC030D50BE4C39582F582E49583F559
:100D86008322C2D5E58330E70DD2D5E4C39582F53B
:100D960082E49583F583E54D30E70DB2D5E4C3953E
:100DA6004CF54CE4954DF54D120D0D30D50BE4C3C5
:0E0DB6009582F582E49583F5832275820022F2
:00000001FF
